{
  "_format": "hh-sol-artifact-1",
  "contractName": "GmPortal",
  "sourceName": "contracts/GmPortal.sol",
  "abi": [
    {
      "inputs": [],
      "stateMutability": "payable",
      "type": "constructor"
    },
    {
      "anonymous": false,
      "inputs": [
        {
          "indexed": true,
          "internalType": "address",
          "name": "from",
          "type": "address"
        },
        {
          "indexed": false,
          "internalType": "uint256",
          "name": "timestamp",
          "type": "uint256"
        },
        {
          "indexed": false,
          "internalType": "string",
          "name": "message",
          "type": "string"
        }
      ],
      "name": "NewGm",
      "type": "event"
    },
    {
      "inputs": [],
      "name": "getAllGms",
      "outputs": [
        {
          "components": [
            {
              "internalType": "address",
              "name": "gmer",
              "type": "address"
            },
            {
              "internalType": "string",
              "name": "message",
              "type": "string"
            },
            {
              "internalType": "uint256",
              "name": "timestamp",
              "type": "uint256"
            }
          ],
          "internalType": "struct GmPortal.Gm[]",
          "name": "",
          "type": "tuple[]"
        }
      ],
      "stateMutability": "view",
      "type": "function"
    },
    {
      "inputs": [],
      "name": "getTotalGms",
      "outputs": [
        {
          "internalType": "uint256",
          "name": "",
          "type": "uint256"
        }
      ],
      "stateMutability": "view",
      "type": "function"
    },
    {
      "inputs": [
        {
          "internalType": "string",
          "name": "_message",
          "type": "string"
        }
      ],
      "name": "gm",
      "outputs": [],
      "stateMutability": "nonpayable",
      "type": "function"
    },
    {
      "inputs": [
        {
          "internalType": "address",
          "name": "",
          "type": "address"
        }
      ],
      "name": "lastGmedAt",
      "outputs": [
        {
          "internalType": "uint256",
          "name": "",
          "type": "uint256"
        }
      ],
      "stateMutability": "view",
      "type": "function"
    }
  ],
  "bytecode": "0x60806040526200004f6040518060400160405280601981526020017f57652068617665206265656e20636f6e737472756374656421000000000000008152506200007760201b620006061760201c565b606444426200005f9190620001c4565b6200006b919062000261565b60018190555062000308565b62000117816040516024016200008e919062000184565b6040516020818303038152906040527f41304fac000000000000000000000000000000000000000000000000000000007bffffffffffffffffffffffffffffffffffffffffffffffffffffffff19166020820180517bffffffffffffffffffffffffffffffffffffffffffffffffffffffff83818316178352505050506200011a60201b60201c565b50565b60008151905060006a636f6e736f6c652e6c6f679050602083016000808483855afa5050505050565b60006200015082620001a8565b6200015c8185620001b3565b93506200016e8185602086016200022b565b6200017981620002f7565b840191505092915050565b60006020820190508181036000830152620001a0818462000143565b905092915050565b600081519050919050565b600082825260208201905092915050565b6000620001d18262000221565b9150620001de8362000221565b9250827fffffffffffffffffffffffffffffffffffffffffffffffffffffffffffffffff0382111562000216576200021562000299565b5b828201905092915050565b6000819050919050565b60005b838110156200024b5780820151818401526020810190506200022e565b838111156200025b576000848401525b50505050565b60006200026e8262000221565b91506200027b8362000221565b9250826200028e576200028d620002c8565b5b828206905092915050565b7f4e487b7100000000000000000000000000000000000000000000000000000000600052601160045260246000fd5b7f4e487b7100000000000000000000000000000000000000000000000000000000600052601260045260246000fd5b6000601f19601f8301169050919050565b610ff280620003186000396000f3fe608060405234801561001057600080fd5b506004361061004c5760003560e01c80633a05e29e14610051578063797811811461006f5780638a215be31461009f578063d8686ecb146100bd575b600080fd5b6100596100d9565b6040516100669190610bb0565b60405180910390f35b61008960048036038101906100849190610884565b61022a565b6040516100969190610c84565b60405180910390f35b6100a7610242565b6040516100b49190610c84565b60405180910390f35b6100d760048036038101906100d291906108ad565b61024b565b005b60606002805480602002602001604051908101604052809291908181526020016000905b8282101561022157838290600052602060002090600302016040518060600160405290816000820160009054906101000a900473ffffffffffffffffffffffffffffffffffffffff1673ffffffffffffffffffffffffffffffffffffffff1673ffffffffffffffffffffffffffffffffffffffff16815260200160018201805461018690610e75565b80601f01602080910402602001604051908101604052809291908181526020018280546101b290610e75565b80156101ff5780601f106101d4576101008083540402835291602001916101ff565b820191906000526020600020905b8154815290600101906020018083116101e257829003601f168201915b50505050508152602001600282015481525050815260200190600101906100fd565b50505050905090565b60036020528060005260406000206000915090505481565b60008054905090565b4262015180600360003373ffffffffffffffffffffffffffffffffffffffff1673ffffffffffffffffffffffffffffffffffffffff1681526020019081526020016000205461029a9190610da1565b106102da576040517f08c379a00000000000000000000000000000000000000000000000000000000081526004016102d190610c44565b60405180910390fd5b42600360003373ffffffffffffffffffffffffffffffffffffffff1673ffffffffffffffffffffffffffffffffffffffff1681526020019081526020016000208190555060016000808282546103309190610da1565b925050819055506103766040518060400160405280600f81526020017f257320686173207361696420676d2100000000000000000000000000000000008152503361069f565b600260405180606001604052803373ffffffffffffffffffffffffffffffffffffffff16815260200183815260200142815250908060018154018082558091505060019003906000526020600020906003020160009091909190915060008201518160000160006101000a81548173ffffffffffffffffffffffffffffffffffffffff021916908373ffffffffffffffffffffffffffffffffffffffff1602179055506020820151816001019080519060200190610435929190610764565b50604082015181600201555050606460015442446104539190610da1565b61045d9190610da1565b6104679190610ea7565b6001819055506032600154116105b3576104b66040518060400160405280600781526020017f257320776f6e21000000000000000000000000000000000000000000000000008152503361069f565b6000655af3107a4000905047811115610504576040517f08c379a00000000000000000000000000000000000000000000000000000000081526004016104fb90610c24565b60405180910390fd5b60003373ffffffffffffffffffffffffffffffffffffffff168260405161052a90610b9b565b60006040518083038185875af1925050503d8060008114610567576040519150601f19603f3d011682016040523d82523d6000602084013e61056c565b606091505b50509050806105b0576040517f08c379a00000000000000000000000000000000000000000000000000000000081526004016105a790610c64565b60405180910390fd5b50505b3373ffffffffffffffffffffffffffffffffffffffff167fee86ba231d4398fdc6bddfeaf10d67c92be43790841bf9ae08cc7c476f01294e42836040516105fb929190610c9f565b60405180910390a250565b61069c8160405160240161061a9190610bd2565b6040516020818303038152906040527f41304fac000000000000000000000000000000000000000000000000000000007bffffffffffffffffffffffffffffffffffffffffffffffffffffffff19166020820180517bffffffffffffffffffffffffffffffffffffffffffffffffffffffff838183161783525050505061073b565b50565b61073782826040516024016106b5929190610bf4565b6040516020818303038152906040527f319af333000000000000000000000000000000000000000000000000000000007bffffffffffffffffffffffffffffffffffffffffffffffffffffffff19166020820180517bffffffffffffffffffffffffffffffffffffffffffffffffffffffff838183161783525050505061073b565b5050565b60008151905060006a636f6e736f6c652e6c6f679050602083016000808483855afa5050505050565b82805461077090610e75565b90600052602060002090601f01602090048101928261079257600085556107d9565b82601f106107ab57805160ff19168380011785556107d9565b828001600101855582156107d9579182015b828111156107d85782518255916020019190600101906107bd565b5b5090506107e691906107ea565b5090565b5b808211156108035760008160009055506001016107eb565b5090565b600061081a61081584610d00565b610ccf565b90508281526020810184848401111561083257600080fd5b61083d848285610e33565b509392505050565b60008135905061085481610fa5565b92915050565b600082601f83011261086b57600080fd5b813561087b848260208601610807565b91505092915050565b60006020828403121561089657600080fd5b60006108a484828501610845565b91505092915050565b6000602082840312156108bf57600080fd5b600082013567ffffffffffffffff8111156108d957600080fd5b6108e58482850161085a565b91505092915050565b60006108fa8383610b2d565b905092915050565b61090b81610df7565b82525050565b61091a81610df7565b82525050565b600061092b82610d40565b6109358185610d63565b93508360208202850161094785610d30565b8060005b85811015610983578484038952815161096485826108ee565b945061096f83610d56565b925060208a0199505060018101905061094b565b50829750879550505050505092915050565b60006109a082610d4b565b6109aa8185610d7f565b93506109ba818560208601610e42565b6109c381610f94565b840191505092915050565b60006109d982610d4b565b6109e38185610d90565b93506109f3818560208601610e42565b6109fc81610f94565b840191505092915050565b6000610a14603483610d90565b91507f547279696e6720746f207769746864726177206d6f7265206d6f6e657920746860008301527f616e2074686520636f6e7472616374206861732e0000000000000000000000006020830152604082019050919050565b6000610a7a602083610d90565b91507f596f752063616e206f6e6c792073617920474d206f6e636520706572206461796000830152602082019050919050565b6000610aba602783610d90565b91507f4661696c656420746f207769746864726177206d6f6e65792066726f6d20636f60008301527f6e74726163742e000000000000000000000000000000000000000000000000006020830152604082019050919050565b6000610b20600083610d74565b9150600082019050919050565b6000606083016000830151610b456000860182610902565b5060208301518482036020860152610b5d8282610995565b9150506040830151610b726040860182610b7d565b508091505092915050565b610b8681610e29565b82525050565b610b9581610e29565b82525050565b6000610ba682610b13565b9150819050919050565b60006020820190508181036000830152610bca8184610920565b905092915050565b60006020820190508181036000830152610bec81846109ce565b905092915050565b60006040820190508181036000830152610c0e81856109ce565b9050610c1d6020830184610911565b9392505050565b60006020820190508181036000830152610c3d81610a07565b9050919050565b60006020820190508181036000830152610c5d81610a6d565b9050919050565b60006020820190508181036000830152610c7d81610aad565b9050919050565b6000602082019050610c996000830184610b8c565b92915050565b6000604082019050610cb46000830185610b8c565b8181036020830152610cc681846109ce565b90509392505050565b6000604051905081810181811067ffffffffffffffff82111715610cf657610cf5610f65565b5b8060405250919050565b600067ffffffffffffffff821115610d1b57610d1a610f65565b5b601f19601f8301169050602081019050919050565b6000819050602082019050919050565b600081519050919050565b600081519050919050565b6000602082019050919050565b600082825260208201905092915050565b600081905092915050565b600082825260208201905092915050565b600082825260208201905092915050565b6000610dac82610e29565b9150610db783610e29565b9250827fffffffffffffffffffffffffffffffffffffffffffffffffffffffffffffffff03821115610dec57610deb610ed8565b5b828201905092915050565b6000610e0282610e09565b9050919050565b600073ffffffffffffffffffffffffffffffffffffffff82169050919050565b6000819050919050565b82818337600083830152505050565b60005b83811015610e60578082015181840152602081019050610e45565b83811115610e6f576000848401525b50505050565b60006002820490506001821680610e8d57607f821691505b60208210811415610ea157610ea0610f36565b5b50919050565b6000610eb282610e29565b9150610ebd83610e29565b925082610ecd57610ecc610f07565b5b828206905092915050565b7f4e487b7100000000000000000000000000000000000000000000000000000000600052601160045260246000fd5b7f4e487b7100000000000000000000000000000000000000000000000000000000600052601260045260246000fd5b7f4e487b7100000000000000000000000000000000000000000000000000000000600052602260045260246000fd5b7f4e487b7100000000000000000000000000000000000000000000000000000000600052604160045260246000fd5b6000601f19601f8301169050919050565b610fae81610df7565b8114610fb957600080fd5b5056fea26469706673582212205a6c51b4e3fa4fd58542a04129485f8515cdcb33afb9b6c97878f5310ae8682564736f6c63430008000033",
  "linkReferences": {},
  "deployedLinkReferences": {}
}